{
  "contractName": "Todolist",
  "abi": [
    {
      "constant": true,
      "inputs": [],
      "name": "taskCount",
      "outputs": [
        {
          "name": "",
          "type": "uint256"
        }
      ],
      "payable": false,
      "stateMutability": "view",
      "type": "function",
      "signature": "0xb6cb58a5"
    }
  ],
  "bytecode": "0x608060405260008055348015601357600080fd5b50609e806100226000396000f3fe608060405260043610603f576000357c0100000000000000000000000000000000000000000000000000000000900463ffffffff168063b6cb58a5146044575b600080fd5b348015604f57600080fd5b506056606c565b6040518082815260200191505060405180910390f35b6000548156fea165627a7a723058208999a5603c58ba1a17360ddd041d3b4bc4abf464e3ca277abc0741269a8f5d220029",
  "source": "pragma solidity ^0.5.0;\r\n\r\ncontract Todolist {\r\n  uint public taskCount = 0;\r\n    \r\n}",
  "sourcePath": "C:/Users/ar739/OneDrive/Documents/Projects/Blockchain/proj1/contracts/Todolist.sol",
  "compiler": {
    "name": "solc",
    "version": "0.5.0+commit.1d4f565a.Emscripten.clang"
  },
  "schemaVersion": "3.0.1",
  "updatedAt": "2023-08-12T10:04:06.643Z",
  "devdoc": {
    "methods": {}
  },
  "userdoc": {
    "methods": {}
  }
}